{
  "_format": "hh-sol-artifact-1",
  "contractName": "WavePortal",
  "sourceName": "contracts/WavePortal.sol",
  "abi": [
    {
      "inputs": [],
      "stateMutability": "payable",
      "type": "constructor"
    },
    {
      "anonymous": false,
      "inputs": [
        {
          "indexed": true,
          "internalType": "address",
          "name": "from",
          "type": "address"
        },
        {
          "indexed": false,
          "internalType": "uint256",
          "name": "timestamp",
          "type": "uint256"
        },
        {
          "indexed": false,
          "internalType": "string",
          "name": "message",
          "type": "string"
        },
        {
          "indexed": false,
          "internalType": "bool",
          "name": "winner",
          "type": "bool"
        },
        {
          "indexed": false,
          "internalType": "uint256",
          "name": "totalWaves",
          "type": "uint256"
        }
      ],
      "name": "NewWave",
      "type": "event"
    },
    {
      "inputs": [],
      "name": "getAllWaves",
      "outputs": [
        {
          "components": [
            {
              "internalType": "address",
              "name": "waver",
              "type": "address"
            },
            {
              "internalType": "string",
              "name": "message",
              "type": "string"
            },
            {
              "internalType": "uint256",
              "name": "timestamp",
              "type": "uint256"
            },
            {
              "internalType": "bool",
              "name": "winner",
              "type": "bool"
            }
          ],
          "internalType": "struct WavePortal.Wave[]",
          "name": "",
          "type": "tuple[]"
        }
      ],
      "stateMutability": "view",
      "type": "function"
    },
    {
      "inputs": [],
      "name": "getTotalWaves",
      "outputs": [
        {
          "internalType": "uint256",
          "name": "",
          "type": "uint256"
        }
      ],
      "stateMutability": "view",
      "type": "function"
    },
    {
      "inputs": [
        {
          "internalType": "address",
          "name": "",
          "type": "address"
        }
      ],
      "name": "lastWavedAt",
      "outputs": [
        {
          "internalType": "uint256",
          "name": "",
          "type": "uint256"
        }
      ],
      "stateMutability": "view",
      "type": "function"
    },
    {
      "inputs": [
        {
          "internalType": "string",
          "name": "_message",
          "type": "string"
        }
      ],
      "name": "wave",
      "outputs": [],
      "stateMutability": "nonpayable",
      "type": "function"
    }
  ],
  "bytecode": "0x60806040526200004f6040518060400160405280601581526020017f4920414d204120534d41525420434f4e545241435400000000000000000000008152506200007760201b620006921760201c565b606444426200005f9190620001c4565b6200006b919062000261565b60018190555062000308565b62000117816040516024016200008e919062000184565b6040516020818303038152906040527f41304fac000000000000000000000000000000000000000000000000000000007bffffffffffffffffffffffffffffffffffffffffffffffffffffffff19166020820180517bffffffffffffffffffffffffffffffffffffffffffffffffffffffff83818316178352505050506200011a60201b60201c565b50565b60008151905060006a636f6e736f6c652e6c6f679050602083016000808483855afa5050505050565b60006200015082620001a8565b6200015c8185620001b3565b93506200016e8185602086016200022b565b6200017981620002f7565b840191505092915050565b60006020820190508181036000830152620001a0818462000143565b905092915050565b600081519050919050565b600082825260208201905092915050565b6000620001d18262000221565b9150620001de8362000221565b9250827fffffffffffffffffffffffffffffffffffffffffffffffffffffffffffffffff0382111562000216576200021562000299565b5b828201905092915050565b6000819050919050565b60005b838110156200024b5780820151818401526020810190506200022e565b838111156200025b576000848401525b50505050565b60006200026e8262000221565b91506200027b8362000221565b9250826200028e576200028d620002c8565b5b828206905092915050565b7f4e487b7100000000000000000000000000000000000000000000000000000000600052601160045260246000fd5b7f4e487b7100000000000000000000000000000000000000000000000000000000600052601260045260246000fd5b6000601f19601f8301169050919050565b6111a380620003186000396000f3fe608060405234801561001057600080fd5b506004361061004c5760003560e01c8063449d46c0146100515780639a2cdc081461006d578063a42a46631461008b578063bd43a908146100bb575b600080fd5b61006b600480360381019061006691906109d5565b6100d9565b005b6100756104c3565b6040516100829190610e0d565b60405180910390f35b6100a560048036038101906100a091906109ac565b61050e565b6040516100b29190610e0d565b60405180910390f35b6100c3610526565b6040516100d09190610d09565b60405180910390f35b42601e600360003373ffffffffffffffffffffffffffffffffffffffff1673ffffffffffffffffffffffffffffffffffffffff168152602001908152602001600020546101269190610f46565b10610166576040517f08c379a000000000000000000000000000000000000000000000000000000000815260040161015d90610dad565b60405180910390fd5b42600360003373ffffffffffffffffffffffffffffffffffffffff1673ffffffffffffffffffffffffffffffffffffffff1681526020019081526020016000208190555060016000808282546101bc9190610f46565b925050819055506102026040518060400160405280600c81526020017f25732068617320776176656400000000000000000000000000000000000000008152503361072b565b606460015442446102139190610f46565b61021d9190610f46565b6102279190611058565b6001819055506000603260015411610375576102786040518060400160405280600781526020017f257320776f6e21000000000000000000000000000000000000000000000000008152503361072b565b6000655af3107a40009050478111156102c6576040517f08c379a00000000000000000000000000000000000000000000000000000000081526004016102bd90610ded565b60405180910390fd5b60003373ffffffffffffffffffffffffffffffffffffffff16826040516102ec90610cf4565b60006040518083038185875af1925050503d8060008114610329576040519150601f19603f3d011682016040523d82523d6000602084013e61032e565b606091505b5050905080610372576040517f08c379a000000000000000000000000000000000000000000000000000000000815260040161036990610dcd565b60405180910390fd5b50505b600260405180608001604052803373ffffffffffffffffffffffffffffffffffffffff168152602001848152602001428152602001831515815250908060018154018082558091505060019003906000526020600020906004020160009091909190915060008201518160000160006101000a81548173ffffffffffffffffffffffffffffffffffffffff021916908373ffffffffffffffffffffffffffffffffffffffff160217905550602082015181600101908051906020019061043c92919061088c565b506040820151816002015560608201518160030160006101000a81548160ff02191690831515021790555050503373ffffffffffffffffffffffffffffffffffffffff167f183bf7c433004db53238aa7ad699352d6b51e181acb76cceedaa2dc89ffed6fb4284846000546040516104b79493929190610e28565b60405180910390a25050565b60006105066040518060400160405280601781526020017f5765206861766520256420746f74616c207761766573210000000000000000008152506000546107c7565b600054905090565b60036020528060005260406000206000915090505481565b60606002805480602002602001604051908101604052809291908181526020016000905b8282101561068957838290600052602060002090600402016040518060800160405290816000820160009054906101000a900473ffffffffffffffffffffffffffffffffffffffff1673ffffffffffffffffffffffffffffffffffffffff1673ffffffffffffffffffffffffffffffffffffffff1681526020016001820180546105d390611026565b80601f01602080910402602001604051908101604052809291908181526020018280546105ff90611026565b801561064c5780601f106106215761010080835404028352916020019161064c565b820191906000526020600020905b81548152906001019060200180831161062f57829003601f168201915b50505050508152602001600282015481526020016003820160009054906101000a900460ff1615151515815250508152602001906001019061054a565b50505050905090565b610728816040516024016106a69190610d2b565b6040516020818303038152906040527f41304fac000000000000000000000000000000000000000000000000000000007bffffffffffffffffffffffffffffffffffffffffffffffffffffffff19166020820180517bffffffffffffffffffffffffffffffffffffffffffffffffffffffff8381831617835250505050610863565b50565b6107c38282604051602401610741929190610d4d565b6040516020818303038152906040527f319af333000000000000000000000000000000000000000000000000000000007bffffffffffffffffffffffffffffffffffffffffffffffffffffffff19166020820180517bffffffffffffffffffffffffffffffffffffffffffffffffffffffff8381831617835250505050610863565b5050565b61085f82826040516024016107dd929190610d7d565b6040516020818303038152906040527f9710a9d0000000000000000000000000000000000000000000000000000000007bffffffffffffffffffffffffffffffffffffffffffffffffffffffff19166020820180517bffffffffffffffffffffffffffffffffffffffffffffffffffffffff8381831617835250505050610863565b5050565b60008151905060006a636f6e736f6c652e6c6f679050602083016000808483855afa5050505050565b82805461089890611026565b90600052602060002090601f0160209004810192826108ba5760008555610901565b82601f106108d357805160ff1916838001178555610901565b82800160010185558215610901579182015b828111156109005782518255916020019190600101906108e5565b5b50905061090e9190610912565b5090565b5b8082111561092b576000816000905550600101610913565b5090565b600061094261093d84610ea5565b610e74565b90508281526020810184848401111561095a57600080fd5b610965848285610fe4565b509392505050565b60008135905061097c81611156565b92915050565b600082601f83011261099357600080fd5b81356109a384826020860161092f565b91505092915050565b6000602082840312156109be57600080fd5b60006109cc8482850161096d565b91505092915050565b6000602082840312156109e757600080fd5b600082013567ffffffffffffffff811115610a0157600080fd5b610a0d84828501610982565b91505092915050565b6000610a228383610c73565b905092915050565b610a3381610f9c565b82525050565b610a4281610f9c565b82525050565b6000610a5382610ee5565b610a5d8185610f08565b935083602082028501610a6f85610ed5565b8060005b85811015610aab5784840389528151610a8c8582610a16565b9450610a9783610efb565b925060208a01995050600181019050610a73565b50829750879550505050505092915050565b610ac681610fae565b82525050565b610ad581610fae565b82525050565b6000610ae682610ef0565b610af08185610f24565b9350610b00818560208601610ff3565b610b0981611145565b840191505092915050565b6000610b1f82610ef0565b610b298185610f35565b9350610b39818560208601610ff3565b610b4281611145565b840191505092915050565b6000610b5a601483610f35565b91507f596f75206d7573742077616974203330207365630000000000000000000000006000830152602082019050919050565b6000610b9a602783610f35565b91507f4661696c656420746f207769746864726177206d6f6e65792066726f6d20636f60008301527f6e74726163742e000000000000000000000000000000000000000000000000006020830152604082019050919050565b6000610c00602f83610f35565b91507f547279696e6720746f207769746864726177206d6f6e6579207468616e20746860008301527f6520636f6e7472616374206861732e00000000000000000000000000000000006020830152604082019050919050565b6000610c66600083610f19565b9150600082019050919050565b6000608083016000830151610c8b6000860182610a2a565b5060208301518482036020860152610ca38282610adb565b9150506040830151610cb86040860182610cd6565b506060830151610ccb6060860182610abd565b508091505092915050565b610cdf81610fda565b82525050565b610cee81610fda565b82525050565b6000610cff82610c59565b9150819050919050565b60006020820190508181036000830152610d238184610a48565b905092915050565b60006020820190508181036000830152610d458184610b14565b905092915050565b60006040820190508181036000830152610d678185610b14565b9050610d766020830184610a39565b9392505050565b60006040820190508181036000830152610d978185610b14565b9050610da66020830184610ce5565b9392505050565b60006020820190508181036000830152610dc681610b4d565b9050919050565b60006020820190508181036000830152610de681610b8d565b9050919050565b60006020820190508181036000830152610e0681610bf3565b9050919050565b6000602082019050610e226000830184610ce5565b92915050565b6000608082019050610e3d6000830187610ce5565b8181036020830152610e4f8186610b14565b9050610e5e6040830185610acc565b610e6b6060830184610ce5565b95945050505050565b6000604051905081810181811067ffffffffffffffff82111715610e9b57610e9a611116565b5b8060405250919050565b600067ffffffffffffffff821115610ec057610ebf611116565b5b601f19601f8301169050602081019050919050565b6000819050602082019050919050565b600081519050919050565b600081519050919050565b6000602082019050919050565b600082825260208201905092915050565b600081905092915050565b600082825260208201905092915050565b600082825260208201905092915050565b6000610f5182610fda565b9150610f5c83610fda565b9250827fffffffffffffffffffffffffffffffffffffffffffffffffffffffffffffffff03821115610f9157610f90611089565b5b828201905092915050565b6000610fa782610fba565b9050919050565b60008115159050919050565b600073ffffffffffffffffffffffffffffffffffffffff82169050919050565b6000819050919050565b82818337600083830152505050565b60005b83811015611011578082015181840152602081019050610ff6565b83811115611020576000848401525b50505050565b6000600282049050600182168061103e57607f821691505b60208210811415611052576110516110e7565b5b50919050565b600061106382610fda565b915061106e83610fda565b92508261107e5761107d6110b8565b5b828206905092915050565b7f4e487b7100000000000000000000000000000000000000000000000000000000600052601160045260246000fd5b7f4e487b7100000000000000000000000000000000000000000000000000000000600052601260045260246000fd5b7f4e487b7100000000000000000000000000000000000000000000000000000000600052602260045260246000fd5b7f4e487b7100000000000000000000000000000000000000000000000000000000600052604160045260246000fd5b6000601f19601f8301169050919050565b61115f81610f9c565b811461116a57600080fd5b5056fea2646970667358221220620b32b5bed98a0e765d4f50acba0c02e8080cd64e465560815546c566ad08d564736f6c63430008000033",
  "linkReferences": {},
  "deployedLinkReferences": {}
}